:020000040800F2
:10000000A00700203D0200085D2000084D1D0008EB
:100010005920000871070008B12600080000000000
:10002000000000000000000000000000C5200008E3
:100030003D09000800000000BD200008F92000086C
:10004000570200085702000857020008570200082C
:1000500057020008C12000084109000857020008A3
:100060004D0900085702000857020008570200080F
:1000700057020008570200085702000857020008FC
:10008000570200085702000857020008000000004D
:1000900000000000000000000000000057020008FF
:1000A00057020008570200085702000857020008CC
:1000B000A121000857020008570200085702000853
:1000C00057020008570200085702000857020008AC
:1000D00057020008570200085702000800000000FD
:1000E00057020008570200085702000800000000ED
:1000F000000000000000000000000000570200089F
:1001000000000000570200085702000857020008CC
:1001100000000000000000000000000000000000DF
:10012000570200085702000857020008570200084B
:10013000570200080000000000000000000000005E
:10014000000000000000000000000000570200084E
:10015000570200085702000857020008570200081B
:1001600057020008570200080000000000000000CD
:10017000000000000000000000000000000000007F
:10018000000000005702000800000000000000000E
:100190005702000800F002F800F041F80AA090E8C9
:1001A000000C82448344AAF10107DA4501D100F032
:1001B00036F8AFF2090EBAE80F0013F0010F18BFBE
:1001C000FB1A43F001031847B0300000D0300000A4
:1001D000103A24BF78C878C1FAD8520724BF30C873
:1001E00030C144BF04680C60704700000023002445
:1001F00000250026103A28BF78C1FBD8520728BF37
:1002000030C148BF0B607047752900F0F7800020AF
:1002100070471FB503F016F81FBD10B510BD00F0F4
:10022000E8F91146FFF7F5FF02F0FAFA00F006FAD6
:1002300003B4FFF7F2FF03BC00F00EFA0948804751
:1002400009480047FEE7FEE7FEE7FEE7FEE7FEE7B8
:10025000FEE7FEE7FEE7FEE704480549054A064BD0
:10026000704700008D21000895010008A0010020C2
:10027000A0070020A0030020A003002053EA020CE6
:1002800000F069802DE9F04B4FF00006002B1FBFF6
:10029000B3FA83F503FA05F424FA05F65E4012BFBB
:1002A0001643B2FA82F502FA05F4C5F120051EBF25
:1002B00022FA05FC44EA0C04203556EA044C4FEAC5
:1002C000144418BF641C4FF000084FF0000990421E
:1002D00071EB030C39D3002919BFB1FA81F701FA88
:1002E00007F6B0FA80F700FA07F6C7F120071EBF3D
:1002F00020FA07FC46EA0C062037B6FBF4FCA7EB15
:100300000507103F07F01F0BCBF120062CFA06F66D
:100310000CFA0BFB44BFB3460026202FA4BF5E4659
:100320004FF0000B5BEA060C08BF4FF0010B19EB16
:100330000B0948EB0608ABFB027C06FB02CC0BFB6F
:1003400003CCC01B71EB0C01C1E70B4602464146D2
:100350004846BDE8F08B13B5084318BF4FF0FF3097
:100360000146AFF30080BDE81C4070470FB41CB5D8
:10037000074B06AA7B4469460090059800F021F9D6
:100380000020694600F030F91CBC5DF814FB000049
:10039000710200002DE9F0410E4604460020206263
:1003A0002046E168884730B3252805D0D4E90121EB
:1003B0009047206A401CF2E7E16820460027884702
:1003C000050018D0A5F14100192802D820354FF4B6
:1003D00000673246294620462760FFF715FF40B1E7
:1003E000012804D0F61D26F007060836D8E7361D8A
:1003F000D6E72846DAE7206ABDE8F0812DE9F0412A
:100400000646002410687529314616A510D0AFF3B2
:100410000080002802DA404213A507E031688A070D
:1004200001D512A502E0490704D511A5012401E078
:10043000AFF3008000210A2206F1240709E0B0FB97
:10044000F2FCB0FBF2F302FB1C003030785418468B
:10045000491C0028F3D123462A463046BDE8F04126
:1004600000F051B8000000002D0000002B0000003B
:100470002000000010B5431C02E010F8011B71B110
:100480008107FAD14FF0013202C88C1A8C4314EA6A
:10049000C211F9D0C01A0A0603D0C01E10BDC01A7E
:1004A00010BD0A0401D0801E10BD0902FCD0401E00
:1004B00010BD4FF0000200B5134694469646203911
:1004C00022BFA0E80C50A0E80C50B1F12001BFF40D
:1004D000F7AF090728BFA0E80C5048BF0CC05DF873
:1004E00004EB890028BF40F8042B08BF704748BFC1
:1004F00020F8022B11F0804F18BF00F8012B704735
:100500007047704770472DE9F0470D46994692466F
:10051000044600F124080168880604D5E06921F04A
:100520001001216000E00120A84201DD471B00E02E
:100530000027A1697A1902EB0900081AA061207846
:10054000C00602D42046AFF30080002608E0D4E9BC
:1005500001211AF806009047206A401C761C206290
:100560004E45F4DB2078C0060AD52046AFF3008064
:1005700006E0D4E9012130209047206A401C206227
:10058000381EA7F10107F4DC07E0D4E9012118F8CF
:1005900005009047206A401C2062281EA5F1010535
:1005A000F3DC2046AFF300802078000602D502205D
:1005B000BDE8F0870120FBE701694A1C0261087869
:1005C000704700B58FB0CDE9013100210591054993
:1005D0007944CDE9031011466846FFF7DBFE0FB002
:1005E00000BD0000E5FFFFFF0A6802F8010B0A608A
:1005F0007047754600F02CF8AE4605006946534634
:1006000020F00700854618B020B5FFF725FEBDE8AD
:1006100020404FF000064FF000074FF000084FF069
:10062000000BAC46ACE8C009ACE8C009ACE8C009B6
:10063000ACE8C00921F007018D46704710B50446AB
:10064000AFF300802046BDE81040FFF7F1BD000089
:10065000004870471000002001491820ABBEFEE79B
:10066000260002007047000010B542F20432C4F2C6
:100670000102116821F440311160D2F800C090E805
:100680000A4043EA0C03C46813604A6822F480728B
:100690004A6002694B6843EA02224A604A6822F0D3
:1006A00040724A604A6842EA0E024A608A6822F44E
:1006B00000628A608A6822438A60826A8B680124A9
:1006C00023F070638B608B68C0F60074A24202D185
:1006D00023F0405208E01A438A608A6822F04052B0
:1006E0008A60C26A8B681A438A608A6822F00202B2
:1006F0008A608A68037E90F8204042EA43028A605A
:100700004A6884B142F400624A604A684EF20003CB
:1007100022F460424A60426ACFF6FF734C6803EBF2
:100720004232224301E022F400624A60CA6A40F287
:10073000000C22F47002CA62C3694269CFF6F07CF1
:10074000CC6A0CEB03532343CB628B6823F4007316
:100750008B6090F830008B6843EA4020886088689E
:1007600020F480608860886840EA8220886010BD3C
:10077000FEE700002DE9F04182B040F28C18C2F291
:100780000008042088F8000002F09EFA02F0AAFA9D
:1007900040F20010C2F200000021002401F05EF9D6
:1007A00042A0019402F014F902F0A2F800F0D4FB88
:1007B00040F20401C2F200010978044601F5FA771B
:1007C00000F0CAFB001BB84210D240F20045C4F250
:1007D000020501262846022100F0B2FB012808BFCD
:1007E000019600F0B9FB001BB842F3D30198012831
:1007F00047D141A002F0ECF8052088F8000002F093
:1008000063FA02F06FFA40F20040C4F202004021A5
:10081000012200F09BFB40F2901740F2941840F246
:10082000B8040026C2F20007C2F20008C2F20004B7
:10083000002500BF20463E60A8F8006000F07EFF63
:1008400038680028FCD000BF38680028FCD120465A
:1008500000F0B6FF01350A2DECD12EA002F0B8F859
:1008600002F046F8B8F8000002F09AF802F040F8FA
:10087000B8F80000232806D201F008FC02B0BDE859
:10088000F08115A009E0B8F800002D2804D801F087
:1008900011FF02B0BDE8F08121A002F099F802F04A
:1008A00027F801F02FFE02B0BDE8F08157616974AE
:1008B000696E6720666F7220636F6F6C696E672068
:1008C000627574746F6E20746F206265207072653B
:1008D0007373656400000000436F6F6C696E67207E
:1008E000427574746F6E207761736E277420707216
:1008F0006573736564000000436F6F6C696E6720F9
:10090000427574746F6E20776173207072657373B3
:100910006564000054656D707261747572653A00AB
:1009200054656D707261747572652069732073749B
:10093000696C6C20686967680000000070470000FF
:1009400080B5012000F020FA80BD000080B50420B1
:1009500000F01AFA80BD0000EFF3108072B600BFFD
:10096000FEE7000070B581B00022009290F83C20B4
:10097000012A01D1022156E00E6801221FFA86FCED
:1009800080F83C204FEA4C0212FA86F302680A2EE5
:1009900032BF10321E3B0C324FF0070E15680EFAB4
:1009A00003F4A54315608D68146805FA03F3234327
:1009B00013604968062906D8026801EB81010539F0
:1009C00002F134030AE00C2901EB8101026887BFC0
:1009D000413902F12C03233902F130031F221C6834
:1009E0008A4024EA02021A601A680CFA01F11143E3
:1009F00042F2043E1960C4F2010E0168122EAEF5F7
:100A0000417208BF914205D1DEF8003043F4800303
:100A1000CEF8003026F00103102B08BF914205D01C
:100A2000002180F83C10084601B070BDDEF80010CF
:100A3000102E41F40001CEF80010F1D140F2000177
:100A4000C2F2000109684DF68362C4F21B32A1FBB9
:100A50000212910C01EB8101490000BF0091009945
:100A60000029DDD000990139F8E700000068C06C6A
:100A700070470000B0B510B30446006C30B9204692
:100A800000F020F80020606484F83C00206C012510
:100A9000C0060FD4206C41F202118843023020645A
:100AA0002046FFF7E1FD00206064206C65F3010043
:100AB00000252064002084F83C002846B0BD0120B9
:100AC000B0BD000080B586B042F200010068C4F2FB
:100AD0000101002288420592CDE90322029201928F
:100AE00001D006B080BD43F630000092C4F202008F
:100AF000436943F480734361436903F48073009353
:100B0000009B0092036843F001030360006800F05B
:100B10000100009000980320CDE9010001F560403C
:100B200001A9039200F03EF906B080BDF0B581B096
:100B3000044600680D468268520544BF80685FEA3B
:100B4000C0502BD400F008FA21680A68920715D427
:100B500006466F1C08E000BF20680068800727D5A4
:100B600021680868800709D4002FF9D0002DF3D040
:100B700000F0F2F9801BA842EED8F1E76FF0120006
:100B80000860206C40F400702064886810F0405FBA
:100B900001D1207EB0B1002001B0F0BD206C40F04A
:100BA00020002064002084F83C00012001B0F0BD4A
:100BB000206C40F004002064002084F83C000320F6
:100BC00001B0F0BDC86A10F4700F02D0886840050B
:100BD000E1D4206C20F480702064206CC004DAD44E
:100BE000206C40F001002064D5E7000081B00021B6
:100BF000009190F83C10012902BF022001B070471B
:100C00000122016880F83C208A68D20718D18A68DE
:100C10004DF6836342F001028A6040F20002C2F2A4
:100C200000021268C4F21B33A2FB03239A0C02EBEE
:100C3000420200BF0092009A12B1009A013AF9E70D
:100C40008B68026CDB0707D142F010010164416C34
:100C500041F00101416434E040F201739A4302F52E
:100C6000807202644A68520504D5026C012363F362
:100C70000D320264026C4FF0000CD2044FF00002FF
:100C800044BF426C22F0060242F20003426480F844
:100C90003CC06FF02200C4F201030860D3F80403E3
:100CA000C00606D099420CD1986810F0405F08D178
:100CB00003E0886810F0405F03D1886840F080400E
:100CC0008860002001B0704790F83C10012904BFF3
:100CD000022070470121026880F83C10916821F0E1
:100CE000010191609168C90705D1016C41F20112BF
:100CF000914301310164002180F83C10084670479F
:100D0000B0B5044600F028F9054640F20400C2F2EE
:100D100000000078611C18BF044400BF00F01CF9FB
:100D2000401BA042FAD3B0BD80B5C10717D1400720
:100D30001BD540F28C10C2F200000178062918BFC2
:100D400080BD0121017001F0BFFF01F0CBFF40F237
:100D50000010C2F20000042100F080FE05E040F225
:100D60008C10C2F20000017801B180BD0121017038
:100D700001F0AAFF01F0B6FF40F20010C2F200003D
:100D8000042100F06BFE80BD80B543F61441C4F22F
:100D900001010A68024208BF80BD0860FFF7C4FF76
:100DA00080BD00002DE9F04F83B000F13E4202F11A
:100DB000FF724FEAB22241F200070192C4F2020729
:100DC00007224FF0010E00254FF0000A4FF00008F7
:100DD000B84208BF042200920AE000BF08F10108EF
:100DE0000AF1040AB8F1100F05F1020500F0A48021
:100DF0000C680EFA08FB14EA0B09EFD04C6804F0FB
:100E0000030CACF1010EBEF1010F11D8032287686B
:100E100002FA05F6CA68B743AA403A4382604268BC
:100E2000C4F3001722EA0B0207FA08F73A434260BC
:100E3000BCF1030F1CD0C26803238E6803FA05F7C8
:100E4000BA4306FA05F73A43BCF1020FC2600FD16C
:100E50006FF0030202EA580202440AF01C060F2354
:100E6000176A03FA06F40B69A743B3403B431362C6
:100E7000026803234F68AB409A4307F00303AB407B
:100E80001A4317F4403F4FF0010E0260A6D0002233
:100E900043F644030292C4F202031A6843F6004484
:100EA00042F480421A601A68C4F2010402F48042DB
:100EB0000292029A28F003024FF6084B2244CFF622
:100EC000FF7B52F80B300AF00C070F26BE4023EAD6
:100ED000060C019B009E042B38BF1E4606FA07F73E
:100EE00047EA0C0342F80B30A2684B6842EA090754
:100EF00043F60C4CDE0258BF22EA0907A760C4F291
:100F0000010CDCF800209E0242EA090758BF22EAE1
:100F10000907CCF8007062689E0342EA090758BFCF
:100F200022EA090767602268DB0342EA090358BF27
:100F300022EA0903236051E703B0BDE8F08F000007
:100F40000069084018BF012070470000002A08BF50
:100F5000090481617047000040F29810C2F200005D
:100F60000068704740F2040040F29811C2F200009D
:100F7000C2F2000100780A6810440860704700005F
:100F800080B543F60040C4F20200016841F40071EC
:100F90000160016841F480610160016841F4807181
:100FA0000160032000F074F8002000F005F800F064
:100FB0002BF8002080BD0000B0B540F20402C2F260
:100FC000000240F200011278C2F200014FF47A737D
:100FD0000968B3FBF2F20446B1FBF2F1084600F0F7
:100FE0000FFB0F2C4FF001050CD858B94FF0FF3014
:100FF00021460022002500F03BF840F20800C2F232
:10100000000004602846B0BD80B582B0002043F6E1
:1010100040010190C4F202014A6842F480424A60F1
:101020004A6802F480420192019A0090086840F0F8
:1010300080500860086800F08050009000980720F9
:1010400000F026F805200021002200F011F805200C
:1010500000F00AF805200021002200F009F8052020
:1010600000F002F802B080BD80B501F037FB80BD12
:1010700070B514460D46064601F040FB294622464F
:1010800000F0EEFF0146304601F040FB70BD00006D
:1010900080B501F04DFB80BD2DE9F041002800F046
:1010A0008B8043F60808C4F202080446D8F8F80317
:1010B0000D4600F00700884207D288F8F853D8F8A8
:1010C000F80300F00700A84276D12068810717D501
:1010D000410705D5D8F8001041F4E051C8F80010D8
:1010E000010705D5D8F8001041F46041C8F8001098
:1010F000D8F80010A26821F0F0011143C8F80010E0
:10110000C0073FD1D8F8F80300F00700A84207D97C
:1011100088F8F853D8F8F80300F00700A8424BD13C
:101120002068410707D5D8F80010E26821F4E051A3
:101130001143C8F80010000708D5D8F8000021694D
:1011400020F4604040EAC100C8F8000000F07EF8DA
:10115000D8F8001043F25E22C1F30311C0F600027A
:10116000515C40F2000220FA01F140F20800C2F2A4
:1011700000000068C2F200021160FFF71DFF0020AE
:10118000BDE8F0816068811E022907D258F8081C6A
:1011900089015CBF0120BDE8F08110E0012807D182
:1011A00058F8081C89035CBF0120BDE8F08106E007
:1011B00058F8081C890702D40120BDE8F081D8F84E
:1011C000001021F003010843C8F80000FFF7C4FE37
:1011D000064641F2883700BFD8F80000616800F089
:1011E0000C00B0EB810F8DD0FFF7B6FE801BB8422C
:1011F000F2D90320BDE8F08140F20000C2F2000005
:101200000068704780B5FFF7F7FF43F60801C4F2A6
:101210000201096843F26E22C1F38221C0F6000286
:10122000515CC84080BD000080B5FFF7E5FF43F684
:101230000801C4F20201096843F26E22C1F342318F
:10124000C0F60002515CC84080BD000010B543F6F6
:101250000404C4F20204606800F00C0142F2004091
:101260000829C0F2F40007D0042918BF10BD41F2CC
:101270000020C0F27A0010BD216801F03F02216811
:1012800023684902C3F3881105D4A1FB00010023A0
:10129000FEF7F4FF06E041F20020C0F27A00484376
:1012A000B0FBF2F021680222C1F3014102EB4101DF
:1012B000B0FBF1F010BD00002DE9F04182B0002834
:1012C00000F0A2800446007843F60006C007C4F28E
:1012D000020643D0B06800F00C00042805D1306845
:1012E00080033BD56068C8BB8EE0B06800F00C009E
:1012F000082802D170684002F1D46568B5F5A02FC6
:101300000AD0B5F5803F0BD0306820F480303060D3
:10131000306820F4802006E0306840F4802030609F
:10132000306840F480303060FFF716FE002D05462F
:1013300011D000BF3068800310D4FFF70DFE401BB2
:101340006428F7D922E100BFFFF706FE401B64289E
:101350004FF0030055D830688003F5D4207880071B
:101360001AD5B06810F00C0F09D0B06800F00C006E
:10137000082840F08A807068400200F1868030685A
:10138000800702D5E06801283ED13068216920F04D
:10139000F80040EAC10030602078000738D4207897
:1013A00040074CD4A5695DB3B06800F00C00082874
:1013B00040F09E80012D27D07068E16900F4800222
:1013C0008A4221D1216A00F03F028A421CD147F6AD
:1013D000C071626A0140B1EB821F15D1A26A00237D
:1013E000CFF6FF7303EBC23200F440316FF30F020C
:1013F000914209D1E16A00F07060B0EB016F03D156
:10140000002002B0BDE8F081012002B0BDE8F0810B
:101410006069002840F20000C4F2472057D0012143
:10142000C0F8801EFFF798FD054600BF706F80076B
:10143000B5D4FFF791FD401B0228F7D9A6E0306C28
:1014400010F080580AD100200190306C40F080509C
:101450003064306C00F080500190019847F2000732
:10146000C4F200073868C00524D4386840F480709E
:101470003860FFF771FD05463868C0051AD4FFF7DC
:101480006BFD401B0228F7D980E0E068002851D0AE
:101490000020C4F2472001210160FFF75DFD0546F1
:1014A000306880073FF571AFFFF756FD401B0228FB
:1014B000F6D96BE0A568052D50D0012D52D0306FC4
:1014C00020F001003067306F20F004004DE0002173
:1014D000C0F8801EFFF740FD054600BF706F800713
:1014E0007FF55DAFFFF738FD401B0228F6D94DE0D0
:1014F0000027C4F2472700203866FFF72DFD022D94
:1015000005460BD13068800158D5FFF725FD401BFB
:1015100002284FF00300F5D973E700BF306880015F
:101520007FF56EAFFFF718FD401B02284FF0030058
:10153000F4D966E70020C4F2472000210160FFF7DC
:101540000BFD0546306880077FF526AFFFF704FDE9
:10155000401B02284FF00300F4D952E7306F40F0EF
:1015600004003067306F40F001003067FFF7F4FC93
:10157000002D054641F2883714D000BF306F800738
:1015800013D4FFF7E9FC401BB842F7D9032002B09F
:10159000BDE8F081FFF7E0FC401BB8424FF00300CC
:1015A0003FF62FAF306F8007F4D4B8F1000F7FF40F
:1015B000F9AE306C20F080503064F3E604F11C0585
:1015C0002FCD08430021CFF6FF7140EA821001EBD6
:1015D000C3316FF30F0140EA0560084370600120DA
:1015E0003866FFF7B9FC0446306880013FF508AF64
:1015F000FFF7B2FC001B02284FF00300F4D900E70C
:1016000080B500F061FD80BD10B590F83C20012A46
:101610004FF0020240D0012380F83C3080F83D209A
:101620000268D2F804E0D2F808C00C682EF070030B
:10163000234340F6FF34C4F20004A24253600FDC9F
:10164000B2F1804F1DD040F20043C4F200039A4231
:1016500017D040F60003C4F200039A4211D015E0FF
:1016600040F60043C4F200039A420AD044F2000359
:10167000C4F201039A4204D00023C4F201039A4247
:1016800004D149682CF080031943916001210022A4
:1016900080F83D1080F83C20104610BD002804BFA3
:1016A0000120704710B5044690F83D0028B900208D
:1016B00084F83C00204600F01FF8022084F83D002A
:1016C0002068211D00F0AEFD012084F8460084F85A
:1016D0003E0084F83F0084F8400084F8410084F81C
:1016E000420084F8430084F8440084F8450084F8FC
:1016F0003D00002010BD000080B582B00068B0F150
:10170000804F01D002B080BD0020019043F6400020
:10171000C4F202000168002241F00101016000688A
:10172000002100F00100019001981C20FFF7A0FCAF
:101730001C20FFF799FC02B080BD000090F83D101E
:1017400001291CBF01207047022180F83D1000686C
:1017500040F6FF32C168C4F20002904241F001013C
:10176000C1600FDCB0F1804F1DD040F20041C4F2E7
:101770000001884217D040F60001C4F200018842FF
:1017800011D017E040F60041C4F2000188420AD0AF
:1017900044F20001C4F20101884204D00021C4F2E5
:1017A0000101884206D1816801F00701062904BFC2
:1017B00000207047016841F001010160002070477E
:1017C0000146006841F21113C26822F00102C260B2
:1017D000026A1A4208D1026A40F244431A4203D113
:1017E000026822F0010202600122002081F83D20FF
:1017F0007047000010B5044690F83C0001284FF0F7
:10180000020008BF10BD012284F83C2084F83D008E
:1018100020684FF6777382689A4382600A684F2A7D
:101820000FDC1F2A22DD202A23D0302A21D0402A93
:101830004DD14B68CA68194600F040FE206840212F
:101840003BE06F2A17DDB2F5005F20D0B2F5805F74
:101850002AD0702A3BD1D1E9012CCB68614600F037
:1018600061FD2068816841F077011AE00AB1102A11
:101870002DD1114621E0502A18D0602A27D14B687B
:10188000CA68194600F02CFE2068602115E0D1E9F5
:10189000012CCB68614600F045FD2068816841F469
:1018A0008041816000200BE0002009E04B68CA689D
:1018B000194600F003FE2068502100F03FFD002093
:1018C000012184F83D10002184F83C1010BD012056
:1018D000F6E7000080B586B040F200410068C4F22F
:1018E0000001002288420592CDE903220292019272
:1018F00001D006B080BD43F630000092C4F2020071
:10190000036843F002030360006800F002000090E7
:101910000098302001900220CDE90202CDE9042098
:1019200001F5003001A9FFF73DFA06B080BD0000C7
:10193000B0B5044690F83C00012804BF0220B0BDB9
:101940000D464FEAB2010120032984F83C0037D844
:10195000DFE801F0020A12222068294600F0F6FCB6
:10196000206850F8181F0EE02068294600F01EFD80
:10197000206850F8181F16E02068294600F048FD3E
:10198000206850F81C1F41F008010160016821F037
:101990000401016029690FE02068294600F06AFD12
:1019A000206850F81C1F41F400610160016821F4B7
:1019B0008061016029690902026811430160002009
:1019C000002184F83C10B0BD002804BF01207047FE
:1019D00010B5044690F83D0028B9002084F83C007A
:1019E000204600F01FF8022084F83D002068211DE9
:1019F00000F018FC012084F8460084F83E0084F8CA
:101A00003F0084F8400084F8410084F8420084F8E4
:101A1000430084F8440084F8450084F83D00002029
:101A200010BD000081B0006840F20041C4F2000126
:101A3000884201D001B070470020009043F640007A
:101A4000C4F20200016841F002010160006800F088
:101A500002000090009801B070470000B0B5044645
:101A600041B1082909D0042914BF04F1410004F14F
:101A70003F0004E004F13E0001E004F14000007882
:101A800001281CBF0120B0BD022041B1082909D0A6
:101A9000042914BF84F8410084F83F0004E084F86E
:101AA0003E0001E084F84000206844250122C4F291
:101AB000010500F025FC2068A5F14401884203D10E
:101AC000296841F40041296040F6FF31C4F2000169
:101AD00088420FDCB0F1804F1DD040F20041C4F2CB
:101AE0000001884217D040F60001C4F2000188428C
:101AF00011D017E040F60041C4F2000188420AD03C
:101B000044F20001C4F20101884204D00021C4F271
:101B10000101884206D1816801F00701062904BF4E
:101B20000020B0BD016841F0010101600020B0BD9E
:101B300070B504460068002600220D46C4F2010676
:101B400000F0DEFB2068B0420DD1316A41F2111283
:101B5000114208D1016A40F24442114203D1416C62
:101B600021F400414164016A41F21112114208D18D
:101B7000016A40F24442114203D1016821F001019F
:101B800001600120082D09D0042D0BD0002D14BFB9
:101B900084F8410084F83E00002070BD84F84000C5
:101BA000002070BD84F83F00002070BD002804BFF5
:101BB0000120704710B5044690F83D0028B9002078
:101BC00084F83C00204600F021F8242084F83D00F1
:101BD0002068C16821F40051C160204600F0BCFCBF
:101BE0002068016921F490410161416921F02A01D5
:101BF0004161C16841F40051C1600020202120648E
:101C000084F83D1084F83E1010BD000080B586B009
:101C100041F200010068C4F20101002288420592ED
:101C2000CDE903220292019201D006B080BD43F6B5
:101C300030000092C4F20200436943F01003436194
:101C4000436903F010030093009B0092036843F084
:101C500001030360006800F00100009000984FF459
:101C6000C06001900220CDE9020203200490072009
:101C7000059001F5704001A9FFF794F806B080BD0A
:101C80002DE9F04381B0044690F83D0020280BD1A7
:101C90000E4600294FF0010055D01746002A52D0B9
:101CA00094F83C00012803D1022001B0BDE8F08384
:101CB000012084F83C004FF0000921201D46C4F8A3
:101CC000409084F83D00FFF747F9A784E784A168B6
:101CD0000746B1F5805F07D1206900281CBF304658
:101CE0004E46B046064601E04FF0000884F83C90AE
:101CF00007E000BF16F8010B21684860E08C01384E
:101D0000E084E08C80B1204680213A462B4600F0EA
:101D100091FC80B9002EEDD138F8020B21686FF3E9
:101D20005F2048600026E9E7204640213A462B46DE
:101D300000F080FC18B1032001B0BDE8F083202042
:101D400084F83D00002001B0BDE8F083FEE700000C
:101D5000B0B584B040F2700042F2000101220024CC
:101D6000C2F20000C4F201010125C0F60072CDE903
:101D70000244CDE90044057680F82040C0E90A24F9
:101D8000C56180F83040C0E90014C0E90244C0E9F0
:101D90000455FEF76FFE002818BFFEF7DDFD40F288
:101DA0007000C2F200006946CDE900450294FEF7DA
:101DB000D9FD002818BFFEF7CFFD012000900220BA
:101DC000019040F27000C2F200006946FEF7CAFDC1
:101DD000002818BFFEF7C0FD04B0B0BD2DE9F04FDC
:101DE00087B0002443F630000694CDE90444CDE9E1
:101DF00002440194C4F20200016840F2004841F03C
:101E0000040101600168C4F2020801F004010191BB
:101E100001990194016808F5806741F001010160B2
:101E20000168002201F0010101910199019401680A
:101E30004FF6FF7541F00201016000684FF6FF7137
:101E400000F00200019001983846FFF77FF8A8F5EE
:101E5000806630464FF4FE7100224FF4FE7BFFF7A0
:101E600075F840464FF2C87100224FF2C879FFF76B
:101E70006DF8029502AD4FF0010A38462946CDE9CA
:101E800003A40594FEF78EFF30462946CDE902BA39
:101E9000CDE90444FEF786FF052002904FF4881038
:101EA00003900226404629460496FEF77BFF4046F3
:101EB0002946CDE902640496FEF774FF40462946A0
:101EC000CDE9029ACDE90444FEF76CFF062000211B
:101ED0000222FFF7CDF80620FFF7C6F80820002100
:101EE0000222FFF7C5F80820FFF7BEF807B0BDE8EB
:101EF000F08F000080B586B040F2B8000021C2F239
:101F000000004FF0130CCDE90411CDE90211CDE929
:101F100000114FF0804243F67F63C0E9021C01616B
:101F20008021C0E900238161FFF7B8FB002818BFBA
:101F3000FEF712FD4FF48050029040F2B800C2F25A
:101F4000000002A9FFF756FC002818BFFEF704FDA9
:101F50000020CDE9000040F2B800C2F2000069465E
:101F6000FFF752FB002818BFFEF7F6FC06B080BD55
:101F700010B58AB040F2001040F20041C2F20000F9
:101F8000C4F20001002443F67F62642380E8160057
:101F900080210994CDE90744CDE90544CDE9034406
:101FA000CDE90144C0E903348161FFF70DFD00284C
:101FB00018BFFEF7D1FC40F20010C2F2000008A9E1
:101FC000CDE90844FFF720FB002818BFFEF7C4FC4A
:101FD000602001903220029000200390059040F292
:101FE0000010C2F2000001A90022FFF7A1FC0028A6
:101FF00018BFFEF7B1FC40F20010C2F2000001A9C8
:102000000422FFF795FC002818BFFEF7A5FC40F25C
:102010000010C2F20000FFF75DFC0AB010BD000026
:1020200080B540F2481041F20001C2F20000C4F253
:10203000010100234FF00C0C4FF4E13280E80E0058
:10204000C0E90333C0E905C3C361FFF7AFFD002852
:1020500018BFFEF781FC80BDFEE70000FEE7000030
:1020600000F0070080F00703042B28BF04234FF083
:10207000FF3C03380CFA03F338BF0020994381403A
:102080000CFA00F022EA00000843704710B540F255
:102090008C14C2F200042078022808BF10BD00F0A2
:1020A00021FE00F011FE40F20040C4F202000821BF
:1020B0000122FEF74BFF0220207010BD7047000088
:1020C0007047000070470000B0B501380024B4EB41
:1020D000106F1CBF0120B0BD4EF21005CEF20005FE
:1020E00068604FF0FF300F2100F010FB0720AC605C
:1020F00028602046B0BD000080B5FEF733FF80BDEC
:10210000B0B592B006AC20463021FEF7D2F90025DA
:1021100043F640000595CDE90355CDE901550095FD
:10212000C4F202000168022241F08051016000689F
:1021300000F080500090009847F200000095C4F233
:102140000000016862F38F310160006800F44040D4
:10215000009000980120099010200A9020460692D5
:102160000C95FFF7A9F878B90F20CDE901054FF4D8
:102170008050CDE9040501A800210395FEF78CFFEE
:10218000002804BF12B0B0BDFEF7E6FB4EF6885043
:10219000CEF20000016841F4700101607047000058
:1021A00070B540F29016C2F20006306840F2941505
:1021B0000028C2F2000504BF0020288000F0ECFADD
:1021C00029880446084428803068013030600EA019
:1021D00000F0FEFB00F08CFB204600F0E1FB00F07D
:1021E00087FB30680A28B8BF70BD0020306028889F
:1021F0004CF6CD41CCF6CC41A0FB0101C8082880AB
:10220000288800F0F5FB70BD54656D7072617475BF
:1022100072652054696D657220496E7472727570B2
:102220007400000010B540F2FF7E0368C4F2000E97
:1022300040F2000C7045C4F2010C0ADD40F60002C9
:10224000C4F2000290420DD060450BD040F600422F
:1022500004E0B0F1804F05D040F20042C4F2000229
:10226000904203D14A6823F0700313434FF6FF7284
:10227000C4F20002904209DC704512DCB0F1804FDC
:1022800026D040F20042C4F200021FE044F2FF32C6
:10229000C4F2010290420FDC604519D044F2000202
:1022A00012E040F60002C4F20002904210D040F664
:1022B0000042C4F2000209E044F60002C4F2010246
:1022C000904205D044F20042C4F20102904203D190
:1022D000CA6823F44073134323F080024B69D1F89A
:1022E00000E08C681A4360450260C462C0F828E0D0
:1022F00002D10969CCF830100121416110BD000004
:1023000080B501F01F014FF0010CD0F820E00CFA6D
:1023100001F32EEA03030362036A02FA01F119438F
:10232000016280BDD0F808C011432CF47F4C41EA13
:10233000032141EA0C01816070470000826822F0AD
:102340007002114341F0070181607047B0B5026A25
:10235000002422F001020262026AD0F804E0D0F800
:1023600018C08B6822F00202C4F20104A04242EAC3
:10237000030205D1CB6822F00C0223F004031A43B8
:102380000B68A04207D1D1E905452EF4407E44EA0E
:102390000E0444EA050E2CF073052B43C0F804E04C
:1023A0008361496841630262B0BD0000B0B5026A52
:1023B000002422F010020262026AD0F804E0D0F891
:1023C00018C08B6822F02002C4F20104A04242EA45
:1023D000031207D1CB686FF0400522F0C00205EA76
:1023E00003131A430B68A04207D1D1E905452EF427
:1023F000406E4EEA840444EA850E2CF4E64545EA34
:102400000323C0F804E08361496881630262B0BDC0
:10241000B0B5026A002422F480720262026AD0F827
:1024200004E0D0F81CC08B6822F40072C4F20104EE
:10243000A04242EA032207D1CB6840F2FF451B02CB
:1024400022F44062AB431A430B68A04207D1D1E9A2
:1024500005452EF4405E4EEA041444EA051E2CF0B5
:1024600073052B43C0F804E0C3614968C16302628D
:10247000B0BD0000B0B5026A002522F480520262AD
:10248000026A4368D0F81CE00C68D1F808C0C4F2B6
:102490000105A84204D14D6923F4804343EA851322
:1024A0002EF4E64545EA04254360C56122F4005256
:1024B000496842EA0C3201640262B0BDD0F820C023
:1024C000036A23F001030362836923F0F00343EA04
:1024D00002122CF00A031943826101627047000066
:1024E000036A23F0100303628369D0F820C023F449
:1024F000704343EA02322CF0A00343EA01118261E7
:102500000162704780B511A000F062FA00F0F0F9A6
:1025100000F0DAFB00F0E6FB40F20010C2F200002F
:102520000021FFF79BFA4FF0FF3000F061FA4FF403
:10253000FA70FEF7E5FB00F0C7FB00F0D3FB40F2BA
:102540008C10C2F200000621017080BD5475726EBD
:10255000204F66660000000010B504460068D4E90C
:1025600002C22369016921F440511143016162698A
:1025700043EA0C01E3691143C268194349F20C6351
:102580009A431143C1604169A26921F4407141F24B
:102590000043114340F48062C4F201039A42416156
:1025A00002D1FEF741FE01E0FEF72CFEE16963680F
:1025B0001922B1F5004FA0FB02011CD15A00DB0F1C
:1025C000FDF75CFE48F21F51C5F2EB11A0FB0123A1
:1025D0005A096FF0630302FB0300322303EBC000D0
:1025E000A0FB01014FF4F87000EA111000EB02109B
:1025F000C1F342111AE09A009B0FFDF73FFE48F22B
:102600001F51C5F2EB11A0FB01235A096FF06303C0
:1026100002FB0300322303EB0010A0FB0101F020BA
:1026200000EA511000EB0210C1F343112268084385
:10263000906010BD2DE9F041044600680068084034
:10264000884202D10020BDE8F0811D460E4690462A
:102650005F1C04E0206800683040B042F2D0002FD8
:10266000F8D02DB1FEF778FCA0EB0800A842F1D914
:10267000206850E8030F216820F4D07041E803027D
:10268000002AF5D1206850E8050F216820F00100EC
:1026900041E80502002AF5D1202084F83D0084F8A5
:1026A0003E00002084F83C000320BDE8F0810000DB
:1026B000FEE7000080B500F015FB00F005FB40F2DE
:1026C0000040C4F2020080210122FEF73FFC40F2EC
:1026D0008C10C2F200000321017080BD002848BFA9
:1026E000704700F01F01012202FA01F14EF20012C0
:1026F0004009CEF2000242F8201070474EF60C500E
:10270000CEF200000068C0F3022070474EF614536A
:1027100000F00F02CEF2000309011A4400F16043F9
:10272000B0F1FF3FC8BF03F564421170704700006D
:102730004EF60C51CEF200010A684FF6FF031A4024
:1027400060F30A2242F0806040F0FD70086070473C
:10275000B0B584B0002040F27004CDE90200012041
:10276000C2F20004CDE9000069462046FEF7FAF8FF
:102770002046FEF73BFA20464FF0FF31FEF7D6F930
:102780002046FEF773F905462046FEF79DFAA8B2EB
:1027900004B0B0BD00000000B0B584B0002040F22D
:1027A00070040090CDE902000120C2F20004019003
:1027B00069462046FEF7D6F82046FEF717FA20466F
:1027C0004FF0FF31FEF7B2F92046FEF74FF985B220
:1027D0002046FEF779FA284600F023FC9FED0A0B0D
:1027E00053EC102B00F094FA9FED090B53EC102BD7
:1027F00000F02AFC9FED080B53EC102B00F024FC9A
:1028000000F0E0FB04B0B0BD0000000000FEAF40EF
:102810006666666666660A40000000000000594071
:1028200040F20014C2F20004204600210025FFF708
:102830007FF920460421FFF77BF9FEF7A1FBFFF7A4
:102840005FFCFFF7CBFAFFF783FAFFF7E9FBFFF72F
:102850008FFBFFF74FFB4FF4AF70FEF751FA40F2DA
:102860008C1640F2901740F2941840F2B804C2F26D
:102870000006C2F20007C2F20008C2F2000404E03F
:102880002046FEF79DFF00F041F8307801280DD179
:1028900020463D60A8F80050FEF750FF3868002839
:1028A000FCD000BF38680028FCD1E9E73078022866
:1028B00002D030780328E8D13D60A8F8005000BF6E
:1028C0002046FEF73BFF386870B92046FEF778FFD8
:1028D00000F0AEF8F4E700BF2046FEF771FF00F00D
:1028E000A7F82046FEF72AFF38680028F4D1C7E78A
:1028F00080B540F24810C2F2000003A102224FF05E
:10290000FF33FFF7BDF980BD0A0D000080B513A0AD
:1029100000F05EF8FFF7ECFF40F29410C2F2000006
:102920000188222907D81BA000F052F8FFF7E0FF2A
:10293000FFF7ACFB80BD00882D2807D811A000F060
:1029400047F8FFF7D5FFFFF7B5FE80BD09A000F0FF
:102950003FF8FFF7CDFFFDF70DFF80BD6E657720D7
:1029600054656D707261747572652048616E646C37
:102970006572000044414E4745522073746174757E
:10298000730000005741524E494E472073746174E2
:10299000650000004F4B2073746174757300000074
:1029A00010B584B00DF10604024608A12046FDF7DB
:1029B000DDFC40F24810C2F2000021460A224FF02E
:1029C000FF33FFF75DF904B010BD00BF25750000AF
:1029D00010B50446FDF74EFD82B240F24810C2F237
:1029E000000021464FF0FF33FFF74AF910BD000009
:1029F000B0B50446013010D046F26760C6F266609A
:102A000054FB00F0811001EBD075284600F01EF851
:102A100005EB8500A4EB400405E04FF0FF304FF0DC
:102A2000FF3400F013F8204600F0ACF8B0BD000011
:102A300080B5FFF78DFE6FF00F01A1EB001040F69F
:102A4000140180B2C4F20201086080BD01300A287E
:102A500088BF70472DE9F04700224FF000084FF083
:102A6000000A00274FF0000900250024DFE800F0ED
:102A700060061118222C353E56424B0000240122DC
:102A80004FF001084FF0010A01274FF0010901251D
:102A90004EE04FF0010800224FF0010A002743E00A
:102AA0004FF0000A01224FF0010801274FF0010901
:102AB000002531E04FF0000901224FF001084FF0EE
:102AC000010A0127002527E04FF0010800224FF0FE
:102AD000010A00274FF000091DE04FF00008012215
:102AE0004FF0010A01274FF0000914E04FF00008F1
:102AF000012202E001224FF001084FF0010A0127F4
:102B00004FF0010907E04FF0000901224FF00108E2
:102B10004FF0010A01270125012409E000270122C5
:102B20004FF001084FF0010A4FF000090025002482
:102B30000026C4F2020630460421FEF707FA3046AA
:102B400008214246FEF702FA304610215246FEF7AF
:102B5000FDF9304620213A46FEF7F8F9304640218B
:102B60004A46FEF7F3F9304680212A46FEF7EEF991
:102B700030464FF480712246FEF7E8F9BDE8F04791
:102B80007047000001300A2888BF70472DE9F047E0
:102B900000224FF000084FF0000A00274FF0000914
:102BA00000250024DFE800F060061118222C353ED5
:102BB00056424B00002401224FF001084FF0010A59
:102BC00001274FF0010901254EE04FF001080022D6
:102BD0004FF0010A002743E04FF0000A01224FF0B6
:102BE000010801274FF00109002531E04FF00009ED
:102BF00001224FF001084FF0010A0127002527E0CC
:102C00004FF0010800224FF0010A00274FF00009A1
:102C10001DE04FF0000801224FF0010A01274FF09C
:102C2000000914E04FF00008012202E001224FF0F9
:102C300001084FF0010A01274FF0010907E04FF0AA
:102C4000000901224FF001084FF0010A0127012578
:102C5000012409E0002701224FF001084FF0010A8A
:102C60004FF000090025002440F20046C4F202069D
:102C700030464FF48071FEF769F930464FF4007129
:102C80004246FEF763F930464FF480615246FEF744
:102C90005DF930464FF480513A46FEF757F9304619
:102CA0004FF400514A46FEF751F930464FF4804147
:102CB0002A46FEF74BF930464FF400412246FEF714
:102CC00045F9BDE8F047704710B540F20014C2F274
:102CD000000420460021FEF72BFF20460421FEF7CA
:102CE00027FF10BD10B540F20044C4F20204204694
:102CF00080210022FEF72AF9204608210022FEF753
:102D000025F9204640210022FEF720F910BD0000E1
:102D10002DE9C04130B4DFF8A4C23CEA111418BF59
:102D20003CEA131400F0ED801CEA111481EA03055B
:102D300044EAD57418BF1CEA131500F0C880A4EB50
:102D4000050404F17F7404F500344FF0004545EAB2
:102D5000C12145EAC32341EA505143EA52534FEAA5
:102D6000C0204FEAC222994208BF904200F09D80E5
:102D70004FEA13650FF24416765D4FEA134506FBE2
:102D800005F7C7F1807706FB07F74FEAD737A7FBB0
:102D900003687642A7FB06CEC8F5803838BFA8F195
:102DA000010807FB08E6A6FB028C4FF0000EE6FBCD
:102DB00003CEDCF1000CCEF1004E38BFAEF1010EB7
:102DC000A6FB0C584FF00007E6FB0E87A1FB08C6D8
:102DD000A0FB07CE16EB0E064FF0000545F10005EF
:102DE000E1FB076515F1E04E7EBFA4F580345FEA94
:102DF00046066D4116F1800745F100054FEA172799
:102E000047EA05674FEA15254FEA0666A6F1DE4652
:102E1000B6F1805F20D9384605EBC47124F0010C6F
:102E200001EB0C11BCF1FE6F02D8F0BCBDE80081D3
:102E300024425CBF01F5801E9EEAC47F02D4F0BC30
:102E4000BDE80081244200F13980A1F1C041F0BC0D
:102E5000BDE8004100F0F0B94FEAD02040EA41500F
:102E60004FEAD1214FEAD22242EA43524FEAD3231A
:102E7000A7FB028607FB036605FB02661EEA0E0F30
:102E800058BFA6EB0056B6EB00564FEA520E4EEA7C
:102E9000C37E18EB0E0E56EB530EBCD518EB020892
:102EA0005E417F1C55F10005B5E74FF480154FF0EA
:102EB00000074FF000064FF00008ACE701F1C041F9
:102EC00001F000414FF00000F0BCBDE800810CEAC9
:102ED000131511EA0C1F00D00CE013EA0C1F00F0D0
:102EE00026804FF0000081EA030101F00041F0BCB0
:102EF000BDE80081F0BCBDE8004181EA030100F0BB
:102F00009BB9F0BCBDE8004170B500F047F900BFC7
:102F1000097EFC3E00F007B84FF0000081EA030193
:102F200001F00041704781EA030100F085B9F0BC6F
:102F3000BDE8004122494FF000007047FFFDFBF95A
:102F4000F7F5F4F2F0EEEDEBE9E8E6E4E3E1E0DEDC
:102F5000DDDBDAD8D7D5D4D3D1D0CFCDCCCBCAC84E
:102F6000C7C6C5C4C2C1C0BFBEBDBCBBBAB9B8B775
:102F7000B6B5B4B3B2B1B0AFAEADACABAAA9A8A868
:102F8000A7A6A5A4A3A3A2A1A09F9F9E9D9C9C9B36
:102F90009A999998979796959594939392919190E1
:102FA0008F8F8E8E8D8C8C8B8B8A89898888878772
:102FB0008685858484838382828181800000FF07E7
:102FC0000000F87F4FEA41034FEA5353A3F58063B3
:102FD000D3F11E03C8BFD3F1210C0CDD4FF000422A
:102FE00042EAC12242EA505232FA03FC8CEAE17C06
:102FF000ACEBE1707047102BC4BF0020704703F5A5
:10300000787CBCF1FF3F04D06FF0004282EA2100DF
:10301000704770B500F0C2F84992248000207047D4
:10302000F2E7B0FA80F310FA03F10AD0C3F11D03FE
:1030300003F580634FEA03524FEA415002EBD1217E
:1030400070474FF00000704770B5DFF848C11CEAC8
:10305000111E1EBF1CEA13159EEA0C0F95EA0C0FF9
:1030600000F06F8081EA03044EEAD47EAE4421EA88
:103070004C1123EA4C1341F4801143F48013AEF158
:103080007F7EA1FB024CA0FB0365361955EB0C05B6
:10309000A1FB034C4CF10003A0FB021C16EB0C0639
:1030A000654153F10003094218BF46F0010613F4CD
:1030B000007F0BD14FEA03314FEA053041EA155149
:1030C00040EA165034036FF003020AE04FEAC321CE
:1030D0004FEAC52041EA555140EA5650F4026FF0DC
:1030E000020202EB2E4201EB025585EACE710AD0B4
:1030F0005FEA440C18BF24F0004450F1000041F195
:10310000000120EAD47040F2FE7C624500D270BD1E
:10311000A84214BF4FF080444FF04044002E08BF37
:103120000024BEF1806FA8BFA1F1C041BDE870408E
:1031300080F2828001F1C04101F000414FF00000B7
:1031400070470CEA13159EEA0C0F18BF95EA0C0F96
:1031500006D081EA030E4FF000000EF0004170BD72
:1031600000F01CF88900013E00F007B800F009B833
:103170004FEA430C5FEA5C5C08D081EA030100F08F
:103180005BB84FEA410C5FEA5C5CF6D102494FF054
:10319000000070470000FF070000F87F0EF1020EEC
:1031A0002EF0030E5EF8046B364205D4012A43EB81
:1031B000030515F5001F12D8012841EB010C1CF581
:1031C000001F0CD80ED14FEAD17C0CEB4C0C0CF14B
:1031D000020C15F5001F08BF4CEBD37C04E04FF048
:1031E000080C01E04FEAD37C0CEB4C0526FA05F6FF
:1031F00006F00706B6F1040C06D20EEB860CBDE80D
:1032000070404CF0010C6047DFE80CF0090B020243
:103210004FF00041A1F500214FF0000070BD1946AC
:103220001046012851EB010418BFD4F5001484BFE7
:10323000002001F0004170BD0808A0F500114FEA20
:1032400031017047F1EE100A4FF6FF71C0F2C03144
:1032500020EA010040F04070E1EE100A70470000E3
:103260000000000000000102030406070809000036
:103270000000010203040000983200080000002052
:1032800010000000D0010008A83200081000002043
:1032900090070000EC0100080024F4000100000089
:0832A000100000000000000016
:040000050800019559
:00000001FF
